{
  "contractName": "Ballot",
  "abi": [
    {
      "inputs": [
        {
          "internalType": "string",
          "name": "_ballotOfficialName",
          "type": "string"
        },
        {
          "internalType": "string",
          "name": "_proposal",
          "type": "string"
        }
      ],
      "stateMutability": "nonpayable",
      "type": "constructor"
    },
    {
      "anonymous": false,
      "inputs": [
        {
          "indexed": true,
          "internalType": "uint256",
          "name": "_candidateid",
          "type": "uint256"
        }
      ],
      "name": "eventVote",
      "type": "event"
    },
    {
      "inputs": [],
      "name": "ballotOfficialAddress",
      "outputs": [
        {
          "internalType": "address",
          "name": "",
          "type": "address"
        }
      ],
      "stateMutability": "view",
      "type": "function",
      "constant": true
    },
    {
      "inputs": [],
      "name": "ballotOfficialName",
      "outputs": [
        {
          "internalType": "string",
          "name": "",
          "type": "string"
        }
      ],
      "stateMutability": "view",
      "type": "function",
      "constant": true
    },
    {
      "inputs": [],
      "name": "candidateCount",
      "outputs": [
        {
          "internalType": "uint256",
          "name": "",
          "type": "uint256"
        }
      ],
      "stateMutability": "view",
      "type": "function",
      "constant": true
    },
    {
      "inputs": [
        {
          "internalType": "uint256",
          "name": "",
          "type": "uint256"
        }
      ],
      "name": "candidates",
      "outputs": [
        {
          "internalType": "uint256",
          "name": "id",
          "type": "uint256"
        },
        {
          "internalType": "string",
          "name": "name",
          "type": "string"
        },
        {
          "internalType": "uint256",
          "name": "voteCount",
          "type": "uint256"
        }
      ],
      "stateMutability": "view",
      "type": "function",
      "constant": true
    },
    {
      "inputs": [],
      "name": "proposal",
      "outputs": [
        {
          "internalType": "string",
          "name": "",
          "type": "string"
        }
      ],
      "stateMutability": "view",
      "type": "function",
      "constant": true
    },
    {
      "inputs": [],
      "name": "state",
      "outputs": [
        {
          "internalType": "enum Ballot.State",
          "name": "",
          "type": "uint8"
        }
      ],
      "stateMutability": "view",
      "type": "function",
      "constant": true
    },
    {
      "inputs": [],
      "name": "totalVote",
      "outputs": [
        {
          "internalType": "uint256",
          "name": "",
          "type": "uint256"
        }
      ],
      "stateMutability": "view",
      "type": "function",
      "constant": true
    },
    {
      "inputs": [],
      "name": "totalVoter",
      "outputs": [
        {
          "internalType": "uint256",
          "name": "",
          "type": "uint256"
        }
      ],
      "stateMutability": "view",
      "type": "function",
      "constant": true
    },
    {
      "inputs": [
        {
          "internalType": "address",
          "name": "",
          "type": "address"
        }
      ],
      "name": "voterRegister",
      "outputs": [
        {
          "internalType": "string",
          "name": "voterName",
          "type": "string"
        },
        {
          "internalType": "bool",
          "name": "voted",
          "type": "bool"
        },
        {
          "internalType": "string",
          "name": "cnic",
          "type": "string"
        },
        {
          "internalType": "string",
          "name": "age",
          "type": "string"
        },
        {
          "internalType": "string",
          "name": "city",
          "type": "string"
        }
      ],
      "stateMutability": "view",
      "type": "function",
      "constant": true
    },
    {
      "inputs": [],
      "name": "winner",
      "outputs": [
        {
          "internalType": "string",
          "name": "",
          "type": "string"
        }
      ],
      "stateMutability": "view",
      "type": "function",
      "constant": true
    },
    {
      "inputs": [
        {
          "internalType": "address",
          "name": "_voterAddress",
          "type": "address"
        },
        {
          "internalType": "string",
          "name": "_voterName",
          "type": "string"
        },
        {
          "internalType": "string",
          "name": "_cnic",
          "type": "string"
        }
      ],
      "name": "addVoter",
      "outputs": [],
      "stateMutability": "nonpayable",
      "type": "function"
    },
    {
      "inputs": [],
      "name": "startVote",
      "outputs": [],
      "stateMutability": "nonpayable",
      "type": "function"
    },
    {
      "inputs": [
        {
          "internalType": "uint256",
          "name": "_candidateid",
          "type": "uint256"
        }
      ],
      "name": "voteCandidate",
      "outputs": [],
      "stateMutability": "nonpayable",
      "type": "function"
    },
    {
      "inputs": [],
      "name": "endVote",
      "outputs": [],
      "stateMutability": "nonpayable",
      "type": "function"
    }
  ],
  "bytecode": "0x6080604052600060035560006004553480156200001b57600080fd5b50604051620023fa380380620023fa83398181016040528101906200004191906200078a565b336000806101000a81548173ffffffffffffffffffffffffffffffffffffffff021916908373ffffffffffffffffffffffffffffffffffffffff160217905550816001908162000092919062000a5a565b508060029081620000a4919062000a5a565b50620000eb6040518060400160405280600381526020017f50544900000000000000000000000000000000000000000000000000000000008152506200043760201b60201c565b620001316040518060400160405280600381526020017f50505000000000000000000000000000000000000000000000000000000000008152506200043760201b60201c565b620001776040518060400160405280600381526020017f4d514d00000000000000000000000000000000000000000000000000000000008152506200043760201b60201c565b620001bd6040518060400160405280600581526020017f504d4c2d4e0000000000000000000000000000000000000000000000000000008152506200043760201b60201c565b6200024e73ab8483f64d9c6d1ecf9b849ae677dd3315835cb26040518060400160405280600581526020017f41686d65640000000000000000000000000000000000000000000000000000008152506040518060400160405280600d81526020017f3432323031333637333833363900000000000000000000000000000000000000815250620004b660201b60201c565b620002df734b20993bc481177ec7e8f571cecae8a9e22c02db6040518060400160405280600781526020017f4d6f617a7a616d000000000000000000000000000000000000000000000000008152506040518060400160405280600d81526020017f3432353031323135343738393600000000000000000000000000000000000000815250620004b660201b60201c565b620003707378731d3ca6b7e34ac0f824c42a7cc18a495cabab6040518060400160405280600681526020017f48617373616e00000000000000000000000000000000000000000000000000008152506040518060400160405280600d81526020017f3436343031343538373936353800000000000000000000000000000000000000815250620004b660201b60201c565b620004017317f6ad8ef982297579c203069c1dbffe4348c3726040518060400160405280600381526020017f416c6900000000000000000000000000000000000000000000000000000000008152506040518060400160405280600d81526020017f3432323130323534373839363300000000000000000000000000000000000000815250620004b660201b60201c565b6000600a60006101000a81548160ff021916908360028111156200042a576200042962000b41565b5b0217905550505062000bec565b600560008154809291906200044c9062000b9f565b9190505550604051806060016040528060055481526020018281526020016000815250600760006005548152602001908152602001600020600082015181600001556020820151816001019081620004a5919062000a5a565b506040820151816002015590505050565b620004c0620005c6565b828160000181905250818160400181905250600081602001901515908115158152505080600960008673ffffffffffffffffffffffffffffffffffffffff1673ffffffffffffffffffffffffffffffffffffffff16815260200190815260200160002060008201518160000190816200053a919062000a5a565b5060208201518160010160006101000a81548160ff021916908315150217905550604082015181600201908162000572919062000a5a565b5060608201518160030190816200058a919062000a5a565b506080820151816004019081620005a2919062000a5a565b5090505060036000815480929190620005bb9062000b9f565b919050555050505050565b6040518060a00160405280606081526020016000151581526020016060815260200160608152602001606081525090565b6000604051905090565b600080fd5b600080fd5b600080fd5b600080fd5b6000601f19601f8301169050919050565b7f4e487b7100000000000000000000000000000000000000000000000000000000600052604160045260246000fd5b620006608262000615565b810181811067ffffffffffffffff8211171562000682576200068162000626565b5b80604052505050565b600062000697620005f7565b9050620006a5828262000655565b919050565b600067ffffffffffffffff821115620006c857620006c762000626565b5b620006d38262000615565b9050602081019050919050565b60005b8381101562000700578082015181840152602081019050620006e3565b60008484015250505050565b6000620007236200071d84620006aa565b6200068b565b90508281526020810184848401111562000742576200074162000610565b5b6200074f848285620006e0565b509392505050565b600082601f8301126200076f576200076e6200060b565b5b8151620007818482602086016200070c565b91505092915050565b60008060408385031215620007a457620007a362000601565b5b600083015167ffffffffffffffff811115620007c557620007c462000606565b5b620007d38582860162000757565b925050602083015167ffffffffffffffff811115620007f757620007f662000606565b5b620008058582860162000757565b9150509250929050565b600081519050919050565b7f4e487b7100000000000000000000000000000000000000000000000000000000600052602260045260246000fd5b600060028204905060018216806200086257607f821691505b6020821081036200087857620008776200081a565b5b50919050565b60008190508160005260206000209050919050565b60006020601f8301049050919050565b600082821b905092915050565b600060088302620008e27fffffffffffffffffffffffffffffffffffffffffffffffffffffffffffffffff82620008a3565b620008ee8683620008a3565b95508019841693508086168417925050509392505050565b6000819050919050565b6000819050919050565b60006200093b620009356200092f8462000906565b62000910565b62000906565b9050919050565b6000819050919050565b62000957836200091a565b6200096f620009668262000942565b848454620008b0565b825550505050565b600090565b6200098662000977565b620009938184846200094c565b505050565b5b81811015620009bb57620009af6000826200097c565b60018101905062000999565b5050565b601f82111562000a0a57620009d4816200087e565b620009df8462000893565b81016020851015620009ef578190505b62000a07620009fe8562000893565b83018262000998565b50505b505050565b600082821c905092915050565b600062000a2f6000198460080262000a0f565b1980831691505092915050565b600062000a4a838362000a1c565b9150826002028217905092915050565b62000a65826200080f565b67ffffffffffffffff81111562000a815762000a8062000626565b5b62000a8d825462000849565b62000a9a828285620009bf565b600060209050601f83116001811462000ad2576000841562000abd578287015190505b62000ac9858262000a3c565b86555062000b39565b601f19841662000ae2866200087e565b60005b8281101562000b0c5784890151825560018201915060208501945060208101905062000ae5565b8683101562000b2c578489015162000b28601f89168262000a1c565b8355505b6001600288020188555050505b505050505050565b7f4e487b7100000000000000000000000000000000000000000000000000000000600052602160045260246000fd5b7f4e487b7100000000000000000000000000000000000000000000000000000000600052601160045260246000fd5b600062000bac8262000906565b91507fffffffffffffffffffffffffffffffffffffffffffffffffffffffffffffffff820362000be15762000be062000b70565b5b600182019050919050565b6117fe8062000bfc6000396000f3fe608060405234801561001057600080fd5b50600436106100ea5760003560e01c8063a9a981a31161008c578063c19d93fb11610066578063c19d93fb14610219578063de975d1814610237578063dfbf53ae14610255578063f1cea4c714610273576100ea565b8063a9a981a3146101bd578063af154087146101db578063b92239461461020f576100ea565b80636332abc9116100c85780636332abc914610147578063753ec103146101655780638c08a4dc14610183578063909497471461019f576100ea565b80633477ee2e146100ef5780634c0a6af014610121578063516077d51461012b575b600080fd5b61010960048036038101906101049190610e88565b610291565b60405161011893929190610f54565b60405180910390f35b610129610343565b005b61014560048036038101906101409190611125565b61040a565b005b61014f61050e565b60405161015c91906111b0565b60405180910390f35b61016d610514565b60405161017a91906111cb565b60405180910390f35b61019d60048036038101906101989190610e88565b6105a2565b005b6101a7610869565b6040516101b491906111fc565b60405180910390f35b6101c561088d565b6040516101d291906111b0565b60405180910390f35b6101f560048036038101906101f09190611217565b610893565b60405161020695949392919061125f565b60405180910390f35b610217610af6565b005b610221610c7e565b60405161022e9190611345565b60405180910390f35b61023f610c91565b60405161024c91906111cb565b60405180910390f35b61025d610d1f565b60405161026a91906111cb565b60405180910390f35b61027b610dad565b60405161028891906111b0565b60405180910390f35b60076020528060005260406000206000915090508060000154908060010180546102ba9061138f565b80601f01602080910402602001604051908101604052809291908181526020018280546102e69061138f565b80156103335780601f1061030857610100808354040283529160200191610333565b820191906000526020600020905b81548152906001019060200180831161031657829003601f168201915b5050505050908060020154905083565b6000806002811115610358576103576112ce565b5b600a60009054906101000a900460ff16600281111561037a576103796112ce565b5b1461038457600080fd5b60008054906101000a900473ffffffffffffffffffffffffffffffffffffffff1673ffffffffffffffffffffffffffffffffffffffff163373ffffffffffffffffffffffffffffffffffffffff16146103dc57600080fd5b6001600a60006101000a81548160ff02191690836002811115610402576104016112ce565b5b021790555050565b610412610db3565b828160000181905250818160400181905250600081602001901515908115158152505080600960008673ffffffffffffffffffffffffffffffffffffffff1673ffffffffffffffffffffffffffffffffffffffff168152602001908152602001600020600082015181600001908161048a919061156c565b5060208201518160010160006101000a81548160ff02191690831515021790555060408201518160020190816104c0919061156c565b5060608201518160030190816104d6919061156c565b5060808201518160040190816104ec919061156c565b50905050600360008154809291906105039061166d565b919050555050505050565b60035481565b600280546105219061138f565b80601f016020809104026020016040519081016040528092919081815260200182805461054d9061138f565b801561059a5780601f1061056f5761010080835404028352916020019161059a565b820191906000526020600020905b81548152906001019060200180831161057d57829003601f168201915b505050505081565b60018060028111156105b7576105b66112ce565b5b600a60009054906101000a900460ff1660028111156105d9576105d86112ce565b5b146105e357600080fd5b6000600960003373ffffffffffffffffffffffffffffffffffffffff1673ffffffffffffffffffffffffffffffffffffffff16815260200190815260200160002060000180546106329061138f565b9050141580156106425750600082115b801561065057506005548211155b80156106a95750600960003373ffffffffffffffffffffffffffffffffffffffff1673ffffffffffffffffffffffffffffffffffffffff16815260200190815260200160002060010160009054906101000a900460ff16155b15610865576001600960003373ffffffffffffffffffffffffffffffffffffffff1673ffffffffffffffffffffffffffffffffffffffff16815260200190815260200160002060010160006101000a81548160ff0219169083151502179055506007600083815260200190815260200160002060020160008154809291906107309061166d565b9190505550817f5190cbcb11a5b819d29d510204755e1304f26705e78d63e90e9befa7c78c164b60405160405180910390a261076a610de4565b80604001805180919061077c9061166d565b81525050610788610e05565b33816000019073ffffffffffffffffffffffffffffffffffffffff16908173ffffffffffffffffffffffffffffffffffffffff16815250508060086000600454815260200190815260200160002060008201518160000160006101000a81548173ffffffffffffffffffffffffffffffffffffffff021916908373ffffffffffffffffffffffffffffffffffffffff16021790555060208201518160000160146101000a81548160ff021916908315150217905550604082015181600101559050506004600081548092919061085d9061166d565b919050555050505b5050565b60008054906101000a900473ffffffffffffffffffffffffffffffffffffffff1681565b60055481565b60096020528060005260406000206000915090508060000180546108b69061138f565b80601f01602080910402602001604051908101604052809291908181526020018280546108e29061138f565b801561092f5780601f106109045761010080835404028352916020019161092f565b820191906000526020600020905b81548152906001019060200180831161091257829003601f168201915b5050505050908060010160009054906101000a900460ff16908060020180546109579061138f565b80601f01602080910402602001604051908101604052809291908181526020018280546109839061138f565b80156109d05780601f106109a5576101008083540402835291602001916109d0565b820191906000526020600020905b8154815290600101906020018083116109b357829003601f168201915b5050505050908060030180546109e59061138f565b80601f0160208091040260200160405190810160405280929190818152602001828054610a119061138f565b8015610a5e5780601f10610a3357610100808354040283529160200191610a5e565b820191906000526020600020905b815481529060010190602001808311610a4157829003601f168201915b505050505090806004018054610a739061138f565b80601f0160208091040260200160405190810160405280929190818152602001828054610a9f9061138f565b8015610aec5780601f10610ac157610100808354040283529160200191610aec565b820191906000526020600020905b815481529060010190602001808311610acf57829003601f168201915b5050505050905085565b6001806002811115610b0b57610b0a6112ce565b5b600a60009054906101000a900460ff166002811115610b2d57610b2c6112ce565b5b14610b3757600080fd5b60008054906101000a900473ffffffffffffffffffffffffffffffffffffffff1673ffffffffffffffffffffffffffffffffffffffff163373ffffffffffffffffffffffffffffffffffffffff1614610b8f57600080fd5b6002600a60006101000a81548160ff02191690836002811115610bb557610bb46112ce565b5b02179055506040518060200160405280600081525060069081610bd8919061156c565b50600060076000808152602001908152602001600020600201549050600080600190505b6005548111610c53578260076000838152602001908152602001600020600201541115610c4057809150600760008281526020019081526020016000206002015492505b8080610c4b9061166d565b915050610bfc565b506007600082815260200190815260200160002060010160069081610c7891906116e0565b50505050565b600a60009054906101000a900460ff1681565b60018054610c9e9061138f565b80601f0160208091040260200160405190810160405280929190818152602001828054610cca9061138f565b8015610d175780601f10610cec57610100808354040283529160200191610d17565b820191906000526020600020905b815481529060010190602001808311610cfa57829003601f168201915b505050505081565b60068054610d2c9061138f565b80601f0160208091040260200160405190810160405280929190818152602001828054610d589061138f565b8015610da55780601f10610d7a57610100808354040283529160200191610da5565b820191906000526020600020905b815481529060010190602001808311610d8857829003601f168201915b505050505081565b60045481565b6040518060a00160405280606081526020016000151581526020016060815260200160608152602001606081525090565b60405180606001604052806000815260200160608152602001600081525090565b6040518060600160405280600073ffffffffffffffffffffffffffffffffffffffff168152602001600015158152602001600081525090565b6000604051905090565b600080fd5b600080fd5b6000819050919050565b610e6581610e52565b8114610e7057600080fd5b50565b600081359050610e8281610e5c565b92915050565b600060208284031215610e9e57610e9d610e48565b5b6000610eac84828501610e73565b91505092915050565b610ebe81610e52565b82525050565b600081519050919050565b600082825260208201905092915050565b60005b83811015610efe578082015181840152602081019050610ee3565b60008484015250505050565b6000601f19601f8301169050919050565b6000610f2682610ec4565b610f308185610ecf565b9350610f40818560208601610ee0565b610f4981610f0a565b840191505092915050565b6000606082019050610f696000830186610eb5565b8181036020830152610f7b8185610f1b565b9050610f8a6040830184610eb5565b949350505050565b600073ffffffffffffffffffffffffffffffffffffffff82169050919050565b6000610fbd82610f92565b9050919050565b610fcd81610fb2565b8114610fd857600080fd5b50565b600081359050610fea81610fc4565b92915050565b600080fd5b600080fd5b7f4e487b7100000000000000000000000000000000000000000000000000000000600052604160045260246000fd5b61103282610f0a565b810181811067ffffffffffffffff8211171561105157611050610ffa565b5b80604052505050565b6000611064610e3e565b90506110708282611029565b919050565b600067ffffffffffffffff8211156110905761108f610ffa565b5b61109982610f0a565b9050602081019050919050565b82818337600083830152505050565b60006110c86110c384611075565b61105a565b9050828152602081018484840111156110e4576110e3610ff5565b5b6110ef8482856110a6565b509392505050565b600082601f83011261110c5761110b610ff0565b5b813561111c8482602086016110b5565b91505092915050565b60008060006060848603121561113e5761113d610e48565b5b600061114c86828701610fdb565b935050602084013567ffffffffffffffff81111561116d5761116c610e4d565b5b611179868287016110f7565b925050604084013567ffffffffffffffff81111561119a57611199610e4d565b5b6111a6868287016110f7565b9150509250925092565b60006020820190506111c56000830184610eb5565b92915050565b600060208201905081810360008301526111e58184610f1b565b905092915050565b6111f681610fb2565b82525050565b600060208201905061121160008301846111ed565b92915050565b60006020828403121561122d5761122c610e48565b5b600061123b84828501610fdb565b91505092915050565b60008115159050919050565b61125981611244565b82525050565b600060a08201905081810360008301526112798188610f1b565b90506112886020830187611250565b818103604083015261129a8186610f1b565b905081810360608301526112ae8185610f1b565b905081810360808301526112c28184610f1b565b90509695505050505050565b7f4e487b7100000000000000000000000000000000000000000000000000000000600052602160045260246000fd5b6003811061130e5761130d6112ce565b5b50565b600081905061131f826112fd565b919050565b600061132f82611311565b9050919050565b61133f81611324565b82525050565b600060208201905061135a6000830184611336565b92915050565b7f4e487b7100000000000000000000000000000000000000000000000000000000600052602260045260246000fd5b600060028204905060018216806113a757607f821691505b6020821081036113ba576113b9611360565b5b50919050565b60008190508160005260206000209050919050565b60006020601f8301049050919050565b600082821b905092915050565b6000600883026114227fffffffffffffffffffffffffffffffffffffffffffffffffffffffffffffffff826113e5565b61142c86836113e5565b95508019841693508086168417925050509392505050565b6000819050919050565b600061146961146461145f84610e52565b611444565b610e52565b9050919050565b6000819050919050565b6114838361144e565b61149761148f82611470565b8484546113f2565b825550505050565b600090565b6114ac61149f565b6114b781848461147a565b505050565b5b818110156114db576114d06000826114a4565b6001810190506114bd565b5050565b601f821115611520576114f1816113c0565b6114fa846113d5565b81016020851015611509578190505b61151d611515856113d5565b8301826114bc565b50505b505050565b600082821c905092915050565b600061154360001984600802611525565b1980831691505092915050565b600061155c8383611532565b9150826002028217905092915050565b61157582610ec4565b67ffffffffffffffff81111561158e5761158d610ffa565b5b611598825461138f565b6115a38282856114df565b600060209050601f8311600181146115d657600084156115c4578287015190505b6115ce8582611550565b865550611636565b601f1984166115e4866113c0565b60005b8281101561160c578489015182556001820191506020850194506020810190506115e7565b868310156116295784890151611625601f891682611532565b8355505b6001600288020188555050505b505050505050565b7f4e487b7100000000000000000000000000000000000000000000000000000000600052601160045260246000fd5b600061167882610e52565b91507fffffffffffffffffffffffffffffffffffffffffffffffffffffffffffffffff82036116aa576116a961163e565b5b600182019050919050565b6000815490506116c48161138f565b9050919050565b60008190508160005260206000209050919050565b8181036116ee5750506117c6565b6116f7826116b5565b67ffffffffffffffff8111156117105761170f610ffa565b5b61171a825461138f565b6117258282856114df565b6000601f8311600181146117545760008415611742578287015490505b61174c8582611550565b8655506117bf565b601f198416611762876116cb565b965061176d866113c0565b60005b8281101561179557848901548255600182019150600185019450602081019050611770565b868310156117b257848901546117ae601f891682611532565b8355505b6001600288020188555050505b5050505050505b56fea2646970667358221220adab67a72cb0e634b8cb8147e0db92adab203714d5c1e3299cd57b6b35cba83e64736f6c63430008120033",
  "immutableReferences": {},
  "source": "// SPDX-License-Identifier: GPL-3.0\n\npragma solidity >=0.7.0 <0.9.0;\n\ncontract Ballot {\n\n  address public ballotOfficialAddress;\n  string public ballotOfficialName;\n  string public proposal;\n  uint public totalVoter = 0;\n  uint public totalVote = 0;\n  uint public candidateCount;\n  string public winner;\n\n  // ENTITIES\n  struct voter {\n    string voterName;\n    bool voted;\n    string cnic;\n    string age;\n    string city;\n  }\n\n  struct vote {\n    address voterAddress;\n    bool choice;\n    uint candidateId;\n  }\n\n  struct Candidate{\n    uint id;\n    string name;\n    uint voteCount;\n  }\n\n  // MAPPINGS\n  mapping (uint => Candidate) public candidates;\n  mapping(uint => vote) private votes;\n  mapping(address => voter) public voterRegister;\n\n  // STATES\n  enum State { Created, Voting, Ended }\n  State public state;\n\n  // EVENTS\n  event eventVote(\n    uint indexed _candidateid\n  );\n\n  // MODIFIERS\n  modifier condition(bool _condition) {\n    require(_condition);\n    _;\n  }\n  modifier onlyOfficial() {\n    require(msg.sender == ballotOfficialAddress);\n    _;\n  }\n  modifier inState(State _state) {\n    require(state == _state);\n    _;\n  }\n\n  // FUNCTIONS\n  constructor(string memory _ballotOfficialName, string memory _proposal){\n    ballotOfficialAddress = msg.sender;\n    ballotOfficialName = _ballotOfficialName;\n    proposal = _proposal;\n\n    addCandidate(\"PTI\");\n    addCandidate(\"PPP\");\n    addCandidate(\"MQM\");\n    addCandidate(\"PML-N\");\n\n    addVoter(0xAb8483F64d9C6d1EcF9b849Ae677dD3315835cb2, \"Ahmed\", \"4220136738369\");\n    addVoter(0x4B20993Bc481177ec7E8f571ceCaE8A9e22C02db, \"Moazzam\", \"4250121547896\");\n    addVoter(0x78731D3Ca6b7E34aC0F824c42a7cC18A495cabaB, \"Hassan\", \"4640145879658\");\n    addVoter(0x17F6AD8Ef982297579C203069C1DbfFE4348c372, \"Ali\", \"4221025478963\");\n\n    state = State.Created;\n  }\n\n  function addCandidate(string memory _name) private {\n    candidateCount++;\n    candidates[candidateCount] = Candidate(candidateCount, _name, 0);\n  }\n\n  function addVoter(address _voterAddress, string memory _voterName, string memory _cnic)public {\n    voter memory v;\n    v.voterName = _voterName;\n    v.cnic = _cnic;\n    v.voted = false;\n    voterRegister[_voterAddress] = v;\n    totalVoter++;\n  }\n\n  function startVote()\n  public\n  inState(State.Created)\n  onlyOfficial\n  {\n    state = State.Voting;\n  }\n\n  function voteCandidate(uint _candidateid)\n  public\n  inState(State.Voting)\n  {\n    if (bytes(voterRegister[msg.sender].voterName).length != 0 &&\n    _candidateid > 0 &&\n    _candidateid <= candidateCount &&\n    !voterRegister[msg.sender].voted\n    )\n    {\n      voterRegister[msg.sender].voted = true;\n      candidates[_candidateid].voteCount++;\n\n      emit eventVote(_candidateid);\n\n      Candidate memory c;\n      c.voteCount++;\n      vote memory v;\n      v.voterAddress = msg.sender;\n      votes[totalVote] = v;\n      totalVote++;\n    }\n  }\n\n  function endVote()\n  public\n  inState(State.Voting)\n  onlyOfficial\n  {\n    state = State.Ended;\n    winner = '';\n    uint max = candidates[0].voteCount;\n    uint maxIndex = 0;\n    for(uint i = 1; i<= candidateCount; i++) {\n      if (candidates[i].voteCount > max) {\n        maxIndex = i;\n        max = candidates[i].voteCount;\n      }\n    }\n    winner = candidates[maxIndex].name;\n  }\n\n  // function getVoterAddressByCnic(string memory _cnic) private inState(State.Voting) onlyOfficial returns(address voterAddress){\n  //     address currentVoterAddress;\n\n  //     for(uint i=1; i<totalVoter; i++) {\n  //         if (voterRegister[i].cnic == _cnic){\n  //             currentVoterAddress = voterRegister[i].voterAddress;\n  //         }\n  //     }\n  //     return currentVoterAddress;\n  // }\n}\n\n",
  "sourcePath": "/home/ahmed/Desktop/FAST - MSCS/Blockchain/decentralized-voting-app/contracts/Voting.sol",
  "compiler": {
    "name": "solc",
    "version": "0.8.18+commit.87f61d96.Emscripten.clang"
  },
  "schemaVersion": "3.4.11",
  "updatedAt": "2023-02-15T09:34:00.159Z",
  "networkType": "ethereum",
  "devdoc": {
    "kind": "dev",
    "methods": {},
    "version": 1
  },
  "userdoc": {
    "kind": "user",
    "methods": {},
    "version": 1
  }
}